:020000040000FA
:100000000C9463000C948B000C948B000C948B006C
:100010000C948B000C948B000C948B000C948B0034
:100020000C948B000C948B000C948B000C948B0024
:100030000C948B000C948B000C948B000C948B0014
:100040000C94DD040C948B000C94AB040C9485048C
:100050000C948B000C948B000C948B000C948B00F4
:100060000C948B000C948B000000000024002700EF
:100070002A000000000023002600290000000008DC
:10008000000201000003040700000000000000005F
:10009000010204081020408001020408102001021F
:1000A0000408102000000000250028002B00040494
:1000B0000404040404040202020202020303030310
:1000C00003032705850711241FBECFEFD8E0DEBF4D
:1000D000CDBF11E0A0E0B1E0EEEDF1E102C005908E
:1000E0000D92A831B107D9F721E0A8E1B1E001C034
:1000F0001D92AA3EB207E1F710E0C2E6D0E004C0CC
:100100002197FE010E94B707C136D107C9F70E94A7
:10011000C8050C94E2080C9400008F929F92AF9255
:10012000BF92CF92DF92EF92FF920F931F93FC0149
:100130004B01AA24BB24C52ED62EE72EFF24BC2DAE
:10014000A42F9091D801B82C992391F0A92FB0E059
:10015000A89D9001A99D300DB89D300D1124B32E9E
:100160009C9D60011124BD2D949F80011124A12F1D
:100170004091DE012091D9013091DA018091DB01BB
:10018000481324C0CF01880F991F8E0F9F1F820F25
:10019000931FE091DB01E80FF92FF11DB082E09190
:1001A000DC01E80FF92FF11DB0832091DD01820FF2
:1001B000911DFC01A0831F910F91FF90EF90DF90A4
:1001C000CF90BF90AF909F908F900895CF01880FF0
:1001D000991F880F991F820F931FFC01E40FF11DD7
:1001E0001082D7CFAF92BF92CF92DF92EF92FF9261
:1001F0000F931F93CF93DF936C017B018B01040F4F
:10020000151FEB015E01AE18BF08C017D10759F0EA
:100210006991D601ED91FC910190F081E02DC6012C
:100220000995892B79F7C501DF91CF911F910F9126
:10023000FF90EF90DF90CF90BF90AF900895FC01BA
:10024000538D448D252F30E0842F90E0821B930B3B
:10025000541710F0CF96089501970895FC01918DE1
:10026000828D981761F0A28DAE0FBF2FB11D5D96E4
:100270008C91928D9F5F9F73928F90E008958FEF86
:100280009FEF0895FC01918D828D981731F0828D3A
:10029000E80FF11D858D90E008958FEF9FEF089591
:1002A000FC01918D228D892F90E0805C9F4F821BF5
:1002B00091098F739927089583E391E00E9450017B
:1002C00021E0892B09F420E0822F089580E090E05E
:1002D000892B29F00E945C0181110C940000089583
:1002E000FC01A48DA80FB92FB11DA35ABF4F2C91AB
:1002F000848D90E001968F739927848FA689B789A2
:100300002C93A089B1898C91837080648C93938D98
:10031000848D981306C00288F389E02D80818F7D3B
:1003200080830895EF92FF920F931F93CF93DF93F3
:10033000EC0181E0888F9B8D8C8D98131AC0E88921
:10034000F989808185FF15C09FB7F894EE89FF89F0
:100350006083E889F98980818370806480839FBF8E
:1003600081E090E0DF91CF911F910F91FF90EF908E
:100370000895F62E0B8D10E00F5F1F4F0F7311279E
:10038000E02E8C8D8E110CC00FB607FCFACFE889D9
:10039000F989808185FFF5CFCE010E947001F1CFF0
:1003A000EB8DEC0FFD2FF11DE35AFF4FF0829FB74D
:1003B000F8940B8FEA89FB8980818062CFCFCF933D
:1003C000DF93EC01888D8823B9F0AA89BB89E8897D
:1003D000F9898C9185FD03C0808186FD0DC00FB623
:1003E00007FCF7CF8C9185FFF2CF808185FFEDCFA1
:1003F000CE010E947001E9CFDF91CF910895833043
:1004000081F028F4813099F08230A9F00895873086
:10041000A9F08830C9F08430B1F4809180008F7DDC
:1004200003C0809180008F7780938000089584B509
:100430008F7784BD089584B58F7DFBCF8091B00008
:100440008F778093B00008958091B0008F7DF9CFB1
:10045000CF93DF93282F30E0F901E458FF4F8491C8
:10046000F901E057FF4FD491F901E255FF4FC491D4
:10047000CC2391F081110E94FF01EC2FF0E0EE0FF0
:10048000FF1FEC55FF4FA591B4918FB7F894EC91F5
:10049000D095DE23DC938FBFDF91CF910895CF936A
:1004A000DF93282F30E0F901E458FF4F8491F901E0
:1004B000E057FF4FD491F901E255FF4FC491CC238F
:1004C000A1F081110E94FF01EC2FF0E0EE0FFF1F61
:1004D000EE58FF4FA591B491EC91ED2381E090E0AF
:1004E00009F480E0DF91CF91089580E090E0FACFA9
:1004F000CF93DF9390E0FC01E057FF4F24918255AA
:100500009F4FFC0184918823D1F090E0880F991FC0
:10051000FC01E859FF4FA591B491FC01EC55FF4F48
:10052000C591D49161110EC09FB7F8948C91E22FC0
:10053000E0958E238C932881E223E8839FBFDF918F
:10054000CF9108958FB7F894EC91E22BEC938FBF85
:10055000F6CF3FB7F89480911F0190912001A091B0
:100560002101B091220126B5A89B05C02F3F19F0AB
:100570000196A11DB11D3FBFBA2FA92F982F882723
:10058000BC01CD01620F711D811D911D42E0660FFE
:10059000771F881F991F4A95D1F708950F931F93CE
:1005A000CF93DF93CDB7DEB729970FB6F894DEBFB0
:1005B0000FBECDBF8091D9019091DA01892B09F44A
:1005C0007CC00E94A9020091DF011091E0012091FE
:1005D000E1013091E201601771078207930740F44F
:1005E0006093DF017093E0018093E1019093E20159
:1005F0000091DF011091E0012091E1013091E201D1
:10060000601B710B820B930B6C327140810591055D
:10061000C0F2F8948091D4019091D5019A83898396
:10062000E091D901F091DA01DF011196808189878B
:100630009091D001E091E301F091E4018091E50116
:10064000992309F445C09081982B988790818095D3
:1006500089238F838F818C8388E08B8358856F817A
:1006600049853B812C8189819A81508347FD252FC3
:100670003A952083262F39F0441F00C00000608384
:10068000000000C0F2CF38E04D9160830000019778
:1006900061F7F093E401E093E30149873B832C8306
:1006A0009A83898378940E94A9026093DF017093F2
:1006B000E0018093E1019093E20129960FB6F8944E
:1006C000DEBF0FBECDBFDF91CF911F910F91089577
:1006D0009081982B98879081809589238F838F8133
:1006E0008E8388E08D8358856F8149853D812E8179
:1006F00089819A81508347FD252F00C000C0208347
:1007000000C000C000C000C000C060830000262FF1
:100710003A9541F0441F000000C000C000C000C076
:1007200000C0E8CF38E04D9100C0608300C0019761
:1007300009F7F093E401E093E30149873D832E83B9
:10074000AFCF8F929F92AF92BF92CF92DF92EF92F4
:10075000FF924B015C010E94A9026B017C010E9487
:10076000A9026C197D098E099F09683E73408105B5
:100770009105A8F321E0821A9108A108B10888EE3A
:10078000C80E83E0D81EE11CF11C81149104A10461
:10079000B10429F7FF90EF90DF90CF90BF90AF901A
:1007A0009F908F900895CF92DF92EF92FF92CF9318
:1007B000DF936B01770FEE08FF08FE2CED2CDC2C8D
:1007C000CC24052E000C660B770BC42AD52AE62A0A
:1007D000F72A092E000CAA0BBB0BDC0199278827EE
:1007E000C82AD92AEA2AFB2AD0E0C0E08091D201A7
:1007F0009091D301C817D90728F4B701A601CE01FB
:100800000E948D000E94CE022196CC30D10571F756
:10081000DF91CF91FF90EF90DF90CF90089582E02D
:100820000E944F02209118013091190128173907B1
:10083000E9F090931901809318010197B9F4809120
:100840002D0190912E0101968630910554F49093DC
:100850002E0180932D0164E170E080E090E00C9423
:10086000A10310922E0110922D01F5CF08958F92C1
:100870009F92AF92BF920F931F93CF93DF93CDB709
:10088000DEB7A1970FB6F894DEBF0FBECDBF19A299
:10089000423008F44AE08E010F5D1F4F842E912CE8
:1008A000B12CA12CA50194010E949507E62FB90156
:1008B000CA01EA3044F5E05DD801EE938D01232BA7
:1008C000242B252B79F790E080E0109769F0FD014B
:1008D00001900020E9F73197AF014A1B5B0BBD0186
:1008E00083E391E00E94F200A1960FB6F894DEBF78
:1008F0000FBECDBFDF91CF911F910F91BF90AF90F1
:100900009F908F900895E95CD7CF1F920F920FB6FA
:100910000F9211242F933F934F935F936F937F9385
:100920008F939F93AF93BF93EF93FF9383E391E0F4
:100930000E947001FF91EF91BF91AF919F918F91B4
:100940007F916F915F914F913F912F910F900FBECB
:100950000F901F9018951F920F920FB60F921124AF
:100960002F938F939F93EF93FF93E0914301F09127
:1009700044018081E0914901F0914A0182FD1BC050
:10098000908180914C018F5F8F7320914D01821770
:1009900041F0E0914C01F0E0ED5CFE4F958F8093CB
:1009A0004C01FF91EF919F918F912F910F900FBE6E
:1009B0000F901F9018958081F4CF1F920F920FB661
:1009C0000F9211242F933F938F939F93AF93BF93D5
:1009D00080911B0190911C01A0911D01B0911E01FD
:1009E00030911A0123E0230F2D3758F50196A11DF0
:1009F000B11D20931A0180931B0190931C01A093B9
:100A00001D01B0931E0180911F0190912001A091C2
:100A10002101B09122010196A11DB11D80931F01FA
:100A200090932001A0932101B0932201BF91AF9137
:100A30009F918F913F912F910F900FBE0F901F901C
:100A4000189526E8230F0296A11DB11DD2CF109252
:100A500036011092350188EE93E0A0E0B0E080937B
:100A6000370190933801A0933901B0933A018AE09D
:100A700091E0909334018093330185EC90E0909362
:100A8000400180933F0184EC90E090934201809379
:100A9000410180EC90E0909344018093430181EC0C
:100AA00090E0909346018093450182EC90E0909312
:100AB00048018093470186EC90E090934A0180932F
:100AC000490110924C0110924D0110924E0110926A
:100AD0004F011092D1011092D8011092DF011092B3
:100AE000E0011092E1011092E20181E08093DE01C9
:100AF0008093DB011092DC0192E09093DD01809302
:100B0000D00184E290E09093D5018093D4010E94BB
:100B1000BD079093DA018093D901009781F124E217
:100B2000FC0111922A95E9F78CE090E09093D301B3
:100B30008093D20187E090E09093D7018093D60113
:100B40008091D101882339F061E087E00E9478022A
:100B500087E00E942802E5EBF0E0E491F0E0EE0F80
:100B6000FF1FEC55FF4F859194919093E401809382
:100B7000E301E7E9F0E0E491E093E50108951092E4
:100B8000D5011092D4011092D3011092D201D2CF8C
:100B9000789484B5826084BD84B5816084BD85B558
:100BA000826085BD85B5816085BD80916E00816064
:100BB00080936E001092810080918100826080930A
:100BC000810080918100816080938100809180000C
:100BD0008160809380008091B10084608093B10037
:100BE0008091B00081608093B00080917A00846031
:100BF00080937A0080917A00826080937A0080915D
:100C00007A00816080937A0080917A008068809376
:100C10007A001092C100E0914301F091440182E01A
:100C20008083E0913F01F09140011082E091410109
:100C3000F09142018FEC808310924B01E0914701CB
:100C4000F091480186E08083E0914501F0914601F2
:100C5000808180618083E0914501F091460180812F
:100C600088608083E0914501F09146018081806831
:100C70008083E0914501F091460180818F7D8083E2
:100C80008091D6019091D70197FD07C061E00E9445
:100C900078028091D6010E94280281E08093D101E0
:100CA00060E082E00E94780260E083E00E947802C7
:100CB00000E010E083E00E944F022091310130916A
:100CC000320182179307A1F1909332018093310191
:100CD000019771F5C0902F01D09030010D2C000CC0
:100CE000EE08FF084AE0C701B601F7FE0DC06DE24D
:100CF00083E391E00E94920166277727CB016C196C
:100D00007D098E099F094AE00E94370480912F01D6
:100D10009091300101968630910534F59093300121
:100D200080932F0164E170E080E090E00E94A103D5
:100D30000E940F0480912D0190912E018230910527
:100D400009F4CEC0B4F4009719F1019709F4BFC0BB
:100D50000115110509F4AECF0E945C01882309F446
:100D6000A9CF0E940000A6CF1092300110922F014F
:100D7000D9CF8430910509F4C1C00CF4B8C00597EF
:100D800039F744E150E070E060E090E080E0A5C019
:100D900041E050E070E060E090E080E00E94D3032A
:100DA00080912D0190912E010A9791F683E391E0B5
:100DB0000E945001181619060CF086C083E391E0DA
:100DC0000E942E018F3F910589F76AE070E080E074
:100DD00090E00E94A10383E391E00E942E01909392
:100DE0002C0180932B0183309105C1F583E391E0C1
:100DF0000E942E01B82E809323019093240183E357
:100E000091E00E942E01C82E809325019093260127
:100E100083E391E00E942E018093270190932801A3
:100E2000D0E0C0E0D12CF12CE12CFE2CED2CDC2C00
:100E3000CC24EB28C82A8091D2019091D301C81705
:100E4000D90728F4B701A601CE010E948D000E94A7
:100E5000CE022196CC30D10571F7A8CF049709F0C6
:100E6000A5CFC3E2D1E083E391E00E942E018993F4
:100E7000999381E0CB32D807B1F7D0E0C0E0809100
:100E8000290190912A01C817D9070CF08FCF8091C2
:100E9000D2019091D301C817D90790F48091230112
:100EA0004091250150E070E060E0762F652F542FCF
:100EB0004427682B80912701482BCE010E948D008A
:100EC0000E94CE022196DBCF0E940F0469CF4AE038
:100ED00050E06AE070E08AE090E00E94D30338CFEF
:100EE00044E150E064E170E084E190E0F6CF4EE14F
:100EF00050E06EE170E08EE190E0EFCF42E350E031
:100F000062E370E082E390E0E8CF8091D9019091B4
:100F1000DA010E9459088091D6019091D70197FD7E
:100F200003C060E00C9478020895A1E21A2EAA1B77
:100F3000BB1BFD010DC0AA1FBB1FEE1FFF1FA21789
:100F4000B307E407F50720F0A21BB30BE40BF50B86
:100F5000661F771F881F991F1A9469F7609570950F
:100F6000809590959B01AC01BD01CF010895EE0FD6
:100F7000FF1F0590F491E02D09940F931F93CF93D9
:100F8000DF938230910510F482E090E0E091E80177
:100F9000F091E90130E020E0B0E0A0E0309799F472
:100FA0002115310509F44AC0281B390B24303105BD
:100FB000D8F58A819B816115710589F1FB019383C5
:100FC0008283FE0111C04081518102811381481743
:100FD0005907E0F04817590799F4109761F01296F5
:100FE0000C93129713961C933296CF01DF91CF91F9
:100FF0001F910F9108950093E8011093E901F4CF38
:101000002115310551F04217530738F0A901DB01D2
:101010009A01BD01DF01F801C1CFEF01F9CF909333
:10102000E9018093E801CDCFFE01E20FF31F819328
:1010300091932250310939832883D7CF2091E6013B
:101040003091E701232B41F42091020130910301FB
:101050003093E7012093E6012091000130910101D6
:101060002115310541F42DB73EB74091040150914F
:101070000501241B350BE091E601F091E701E21731
:10108000F307A0F42E1B3F0B2817390778F0AC01AB
:101090004E5F5F4F2417350748F04E0F5F1F509388
:1010A000E7014093E601819391939FCFF0E0E0E068
:1010B0009CCFCF93DF930097E9F0FC013297138226
:1010C0001282A091E801B091E901ED0130E020E049
:1010D0001097A1F420813181820F931F2091E601A6
:1010E0003091E7012817390709F061C0F093E70153
:1010F000E093E601DF91CF910895EA01CE17DF0773
:10110000E8F54A815B819E0141155105B1F7E9017E
:10111000FB83EA8349915991C40FD51FEC17FD0752
:1011200061F4808191810296840F951FE901998372
:101130008883828193819B838A83F0E0E0E012962A
:101140008D919C9113970097B9F52D913C91119732
:10115000CD010296820F931F2091E6013091E701A5
:101160002817390739F6309751F51092E901109296
:10117000E801B093E701A093E601BCCFD383C2831B
:1011800040815181840F951FC817D90761F44E5FC4
:101190005F4F88819981480F591F518340838A810D
:1011A0009B81938382832115310509F0B0CFF093A1
:1011B000E901E093E8019ECFFD01DC01C0CF13827D
:1011C0001282D7CF10E0C2E6D0E004C0FE010E9438
:1011D000B7072196C336D107C9F7F894FFCF0000AF
:1011E000EA018000000000009201F2001F01DF010F
:0611F00050012E01420136
:107E0000112484B714BE81FFF0D085E080938100F7
:107E100082E08093C00088E18093C10086E0809377
:107E2000C20080E18093C4008EE0C9D0259A86E02C
:107E300020E33CEF91E0309385002093840096BBD3
:107E4000B09BFECF1D9AA8958150A9F7CC24DD24C4
:107E500088248394B5E0AB2EA1E19A2EF3E0BF2EE7
:107E6000A2D0813461F49FD0082FAFD0023811F036
:107E7000013811F484E001C083E08DD089C08234E0
:107E800011F484E103C0853419F485E0A6D080C0E4
:107E9000853579F488D0E82EFF2485D0082F10E0AE
:107EA000102F00270E291F29000F111F8ED06801E7
:107EB0006FC0863521F484E090D080E0DECF843638
:107EC00009F040C070D06FD0082F6DD080E0C81688
:107ED00080E7D80618F4F601B7BEE895C0E0D1E017
:107EE00062D089930C17E1F7F0E0CF16F0E7DF06D8
:107EF00018F0F601B7BEE89568D007B600FCFDCFD4
:107F0000A601A0E0B1E02C9130E011968C91119780
:107F100090E0982F8827822B932B1296FA010C0160
:107F200087BEE89511244E5F5F4FF1E0A038BF0790
:107F300051F7F601A7BEE89507B600FCFDCF97BE46
:107F4000E89526C08437B1F42ED02DD0F82E2BD052
:107F50003CD0F601EF2C8F010F5F1F4F84911BD097
:107F6000EA94F801C1F70894C11CD11CFA94CF0C13
:107F7000D11C0EC0853739F428D08EE10CD085E9AC
:107F80000AD08FE07ACF813511F488E018D01DD067
:107F900080E101D065CF982F8091C00085FFFCCF94
:107FA0009093C60008958091C00087FFFCCF809118
:107FB000C00084FD01C0A8958091C6000895E0E648
:107FC000F0E098E1908380830895EDDF803219F02E
:107FD00088E0F5DFFFCF84E1DECF1F93182FE3DFCA
:107FE0001150E9F7F2DF1F91089580E0E8DFEE27F6
:047FF000FF270994CA
:027FFE00040479
:00000001FF
