:100000000C9463000C948B000C948B000C948B006C
:100010000C948B000C948B000C948B000C948B0034
:100020000C948B000C948B000C948B000C948B0024
:100030000C948B000C948B000C948B000C948B0014
:100040000C9406060C948B000C94D4050C94AE050D
:100050000C948B000C948B000C948B000C948B00F4
:100060000C948B000C948B000000000024002700EF
:100070002A000000000023002600290000000008DC
:10008000000201000003040700000000000000005F
:10009000010204081020408001020408102001021F
:1000A0000408102000000000250028002B00040494
:1000B0000404040404040202020202020303030310
:1000C00003035006580A11241FBECFEFD8E0DEBF4D
:1000D000CDBF11E0A0E0B1E0EAEEF7E102C005908B
:1000E0000D92A831B107D9F721E0A8E1B1E001C034
:1000F0001D92A23FB207E1F710E0C2E6D0E004C0D3
:100100002197FE010E94BD0AC136D107C9F70E949E
:10011000F1060C94E80B0C9400008F929F92AF9222
:10012000BF92CF92DF92EF92FF92CF932091DA01AC
:100130003091DB0182179307E8F54B01AA24BB2419
:10014000C82DC52ED62EE72EFF24BC2DA42F20911E
:10015000E001222361F0829E40011124C92D2C9DD3
:1001600060011124BD2D249FF0011124AF2FE091D7
:10017000E601E090E101F090E2013091E301E31348
:1001800023C09C01220F331F820F931F8E0D9F1DD2
:10019000E091E301E80FF92FF11DC083E091E40144
:1001A000E80FF92FF11DB0832091E501820F911D19
:1001B000FC01A083CF91FF90EF90DF90CF90BF9094
:1001C000AF909F908F900895880F991F880F991F67
:1001D0008E0D9F1D472F552766277727222349F02D
:1001E00030E0249F7001259FF00C349FF00C112407
:1001F0004F2DE80FF92FF11D4083CACFDC019091FC
:10020000E001992361F0699FB0011124672F949F49
:10021000A0011124452F929F90011124232F30918A
:10022000E601E091E101F091E2018091E3013813F0
:100230001AC0CD01880F991F8A0F9B1F8E0F9F1F19
:10024000E091E301E80FF92FF11D6083E091E401F3
:10025000E80FF92FF11D40833091E501830F911DC7
:10026000FC0120830895CD01880F991F880F991FE5
:100270008E0F9F1FFC01E30FF11D1082E1CFAF92A3
:10028000BF92CF92DF92EF92FF920F931F93CF9383
:10029000DF936C017B018B01040F151FEB015E01E5
:1002A000AE18BF08C017D10759F06991D601ED917A
:1002B000FC910190F081E02DC6010995892B79F719
:1002C000C501DF91CF911F910F91FF90EF90DF90CB
:1002D000CF90BF90AF900895FC01538D448D252F92
:1002E00030E0842F90E0821B930B541710F0CF96D0
:1002F000089501970895FC01918D828D981761F002
:10030000A28DAE0FBF2FB11D5D968C91928D9F5F18
:100310009F73928F90E008958FEF9FEF0895FC01F7
:10032000918D828D981731F0828DE80FF11D858DAA
:1003300090E008958FEF9FEF0895FC01918D228D3D
:10034000892F90E0805C9F4F821B91098F739927C2
:1003500008958BE391E00E949D0121E0892B09F42F
:1003600020E0822F089580E090E0892B29F00E9400
:10037000A90181110C9400000895FC01A48DA80F1F
:10038000B92FB11DA35ABF4F2C91848D90E00196D7
:100390008F739927848FA689B7892C93A089B189F7
:1003A0008C91837080648C93938D848D981306C098
:1003B0000288F389E02D80818F7D80830895EF92FC
:1003C000FF920F931F93CF93DF93EC0181E0888F0F
:1003D0009B8D8C8D98131AC0E889F989808185FFDF
:1003E00015C09FB7F894EE89FF896083E889F98981
:1003F00080818370806480839FBF81E090E0DF9183
:10040000CF911F910F91FF90EF900895F62E0B8DD5
:1004100010E00F5F1F4F0F731127E02E8C8D8E1190
:100420000CC00FB607FCFACFE889F989808185FFF7
:10043000F5CFCE010E94BD01F1CFEB8DEC0FFD2F6A
:10044000F11DE35AFF4FF0829FB7F8940B8FEA89B2
:10045000FB8980818062CFCFCF93DF93EC01888DC1
:100460008823B9F0AA89BB89E889F9898C9185FD2F
:1004700003C0808186FD0DC00FB607FCF7CF8C91BD
:1004800085FFF2CF808185FFEDCFCE010E94BD01B7
:10049000E9CFDF91CF910895833081F028F4813046
:1004A00099F08230A9F008958730A9F08830C9F01A
:1004B0008430B1F4809180008F7D03C080918000F2
:1004C0008F7780938000089584B58F7784BD0895D9
:1004D00084B58F7DFBCF8091B0008F778093B00083
:1004E00008958091B0008F7DF9CFCF93DF93282FAF
:1004F00030E0F901E458FF4F8491F901E057FF4FD4
:10050000D491F901E255FF4FC491CC2391F08111B0
:100510000E944C02EC2FF0E0EE0FFF1FEC55FF4F56
:10052000A591B4918FB7F894EC91D095DE23DC932C
:100530008FBFDF91CF910895CF93DF93282F30E0C5
:10054000F901E458FF4F8491F901E057FF4FD4912E
:10055000F901E255FF4FC491CC23A1F081110E9413
:100560004C02EC2FF0E0EE0FFF1FEE58FF4FA5916D
:10057000B491EC91ED2381E090E009F480E0DF910B
:10058000CF91089580E090E0FACFCF93DF9390E091
:10059000FC01E057FF4F249182559F4FFC0184914D
:1005A0008823D1F090E0880F991FFC01E859FF4F94
:1005B000A591B491FC01EC55FF4FC591D491611107
:1005C0000EC09FB7F8948C91E22FE0958E238C9308
:1005D0002881E223E8839FBFDF91CF9108958FB7F1
:1005E000F894EC91E22BEC938FBFF6CF8E3008F0AD
:1005F0008E508770806480937C0080917A00806444
:1006000080937A0080917A0086FDFCCF80917800FB
:100610009091790008953FB7F894809121019091CD
:100620002201A0912301B091240126B5A89B05C009
:100630002F3F19F00196A11DB11D3FBFBA2FA92F61
:10064000982F8827BC01CD01620F711D811D911D5E
:1006500042E0660F771F881F991F4A95D1F70895CA
:100660000F931F93CF93DF93CDB7DEB729970FB6C4
:10067000F894DEBF0FBECDBF8091E1019091E20101
:10068000892B09F47CC00E940B030091E7011091B3
:10069000E8012091E9013091EA01601771078207B2
:1006A000930740F46093E7017093E8018093E901B8
:1006B0009093EA010091E7011091E8012091E9018E
:1006C0003091EA01601B710B820B930B6C3271400D
:1006D00081059105C0F2F8948091DC019091DD01D3
:1006E0009A838983E091E101F091E201DF011196A3
:1006F000808189879091D801E091EB01F091EC0124
:100700008091ED01992309F445C09081982B988739
:100710009081809589238F838F818C8388E08B8360
:1007200058856F8149853B812C8189819A815083CD
:1007300047FD252F3A952083262F39F0441F00C00E
:1007400000006083000000C0F2CF38E04D9160836C
:100750000000019761F7F093EC01E093EB0149870A
:100760003B832C839A83898378940E940B03609344
:10077000E7017093E8018093E9019093EA012996DB
:100780000FB6F894DEBF0FBECDBFDF91CF911F91A2
:100790000F9108959081982B988790818095892357
:1007A0008F838F818E8388E08D8358856F81498503
:1007B0003D812E8189819A81508347FD252F00C07C
:1007C00000C0208300C000C000C000C000C0608323
:1007D0000000262F3A9541F0441F000000C000C0E1
:1007E00000C000C000C0E8CF38E04D9100C0608379
:1007F00000C0019709F7F093EC01E093EB01498702
:100800003D832E83AFCF8F929F92AF92BF92CF92B4
:10081000DF92EF92FF926B017C010E940B034B0170
:100820005C01C114D104E104F104B9F00E940B038E
:10083000681979098A099B09683E73408105910509
:1008400080F321E0C21AD108E108F10888EE880E91
:1008500083E0981EA11CB11CE4CFFF90EF90DF90C5
:10086000CF90BF90AF909F908F900895282F2095A4
:10087000253598F4822F880F880F622F681B9FEF11
:10088000960F692F70E090E080E0CB017727662714
:10089000322F330F230F622B08952A3A88F42555FF
:1008A000622F660F620F70E090E080E0982F872F34
:1008B000762F6627322F330F330F231B2150EBCFB8
:1008C0002A5A822F880F880F322F381B3150622FFF
:1008D000660F620F70E090E080E0CB01772766271B
:1008E000732B08958EE00E94F60297FD039695956E
:1008F0008795959587959093300180932F018FE090
:100900000E94F60297FD0396959587959595879594
:10091000909332018093310180E10E94F60297FDAD
:100920000396959587959595879590933401809337
:10093000330181E10E94F60297FD03969595879514
:1009400095958795909336018093350182E00E94BA
:100950009C0220911A0130911B012817390791F050
:1009600090931B0180931A01019761F480913901E2
:1009700090913A010196863091050CF590933A01D9
:100980008093390183E00E949C02209118013091EC
:10099000190128173907E1F0909319018093180184
:1009A0000197B1F48091370190913801019686301A
:1009B000910554F490933801809337010895109273
:1009C0003A0110923901DECF1092380110923701AE
:1009D00008954F925F926F927F928F929F92AF9203
:1009E000BF92CF92DF92EF92FF920F931F93CF931C
:1009F000DF93722E66246394620E462C512C542C85
:100A0000442491E0491A5108C42ED12CF12CE12C38
:100A1000D62AE82AD0E0C0E088248A94982CA12C19
:100A2000B12C2091E001621679F10091E101109161
:100A3000E201215070E060E059F08FEF78121CC0A5
:100A400030E050E040E0C501B4010E949E0AB901C7
:100A5000F8014091DC015091DD01CF01801B910B29
:100A60008417950778F44081469FC001479F900DF9
:100A7000112490833196EDCF622F70E0C2010E9465
:100A8000680AE6CF6092E001B701A601CE010E949C
:100A90008D000E9430032196C634D10511F6DF91F6
:100AA000CF911F910F91FF90EF90DF90CF90BF906B
:100AB000AF909F908F907F906F905F904F90089530
:100AC0008F929F92AF92BF920F931F93CF93DF931A
:100AD000CDB7DEB7A1970FB6F894DEBF0FBECDBF7E
:100AE00019A2423008F44AE08E010F5D1F4F842E98
:100AF000912CB12CA12CA50194010E947C0AE62F17
:100B0000B901CA01EA3044F5E05DD801EE938D01E8
:100B1000232B242B252B79F790E080E0109769F0A8
:100B2000FD0101900020E9F73197AF014A1B5B0BF3
:100B3000BD018BE391E00E943F01A1960FB6F894AE
:100B4000DEBF0FBECDBFDF91CF911F910F91BF9040
:100B5000AF909F908F900895E95CD7CF1F920F922E
:100B60000FB60F9211242F933F934F935F936F9380
:100B70007F938F939F93AF93BF93EF93FF938BE3F9
:100B800091E00E94BD01FF91EF91BF91AF919F91C4
:100B90008F917F916F915F914F913F912F910F9026
:100BA0000FBE0F901F9018951F920F920FB60F92C5
:100BB00011242F938F939F93EF93FF93E0914B0119
:100BC000F0914C018081E0915101F091520182FD40
:100BD0001BC09081809154018F5F8F7320915501CC
:100BE000821741F0E0915401F0E0E55CFE4F958FF3
:100BF00080935401FF91EF919F918F912F910F90CE
:100C00000FBE0F901F9018958081F4CF1F920F9206
:100C10000FB60F9211242F933F938F939F93AF930F
:100C2000BF9380911D0190911E01A0911F01B09171
:100C3000200130911C0123E0230F2D3758F5019638
:100C4000A11DB11D20931C0180931D0190931E01D5
:100C5000A0931F01B0932001809121019091220166
:100C6000A0912301B09124010196A11DB11D809393
:100C7000210190932201A0932301B0932401BF91FD
:100C8000AF919F918F913F912F910F900FBE0F9039
:100C90001F90189526E8230F0296A11DB11DD2CFF3
:100CA00010923E0110923D0188EE93E0A0E0B0E08A
:100CB00080933F0190934001A0934101B093420182
:100CC0008AE091E090933C0180933B0185EC90E0B9
:100CD000909348018093470184EC90E090934A01FF
:100CE0008093490180EC90E090934C0180934B01FC
:100CF00081EC90E090934E0180934D0182EC90E066
:100D00009093500180934F0186EC90E090935201B4
:100D10008093510110925401109255011092560186
:100D2000109257011092D9011092E0011092E70140
:100D30001092E8011092E9011092EA0181E080939B
:100D4000E6018093E3011092E40192E09093E501C3
:100D50008093D80182ED90E09093DD018093DC01D7
:100D60000E94C30A9093E2018093E101009781F110
:100D700022EDFC0111922A95E9F786E490E0909328
:100D8000DB018093DA0187E090E09093DF018093AC
:100D9000DE018091D901882339F061E087E00E946B
:100DA000C50287E00E947502E5EBF0E0E491F0E017
:100DB000EE0FFF1FEC55FF4F859194919093EC013E
:100DC0008093EB01E7E9F0E0E491E093ED01089511
:100DD0001092DD011092DC011092DB011092DA0119
:100DE000D2CF789484B5826084BD84B5816084BD9F
:100DF00085B5826085BD85B5816085BD80916E00B9
:100E0000816080936E0010928100809181008260E9
:100E10008093810080918100816080938100809126
:100E200080008160809380008091B1008460809315
:100E3000B1008091B00081608093B00080917A0011
:100E4000846080937A0080917A00826080937A0037
:100E500080917A00816080937A0080917A00806826
:100E600080937A001092C100E0914B01F0914C0107
:100E700082E08083E0914701F09148011082E09187
:100E80004901F0914A018FEC808310925301E09167
:100E90004F01F091500186E08083E0914D01F09187
:100EA0004E01808180618083E0914D01F0914E017F
:100EB000808188608083E0914D01F0914E018081B6
:100EC00080688083E0914D01F0914E0180818F7D9B
:100ED00080838091DE019091DF0197FD07C061E082
:100EE0000E94C5028091DE010E94750281E080931C
:100EF000D90160E082E00E94C50260E083E00E94C8
:100F0000C5020FEF10E040E0A42E40E0B42E0E9496
:100F100072048091390190913A018230910509F46F
:100F2000ECC084F4009709F450C0019709F4D2C0D2
:100F3000A114B10461F30E94A901882341F30E9426
:100F40000000E5CF8430910509F4E9C00CF4DEC05F
:100F50002FEF30E050E040E0059751F770E060E09F
:100F6000DBC08330910509F064C08BE391E00E94FF
:100F70007B01782E80932501909326018BE391E0ED
:100F80000E947B01C82E80932701909328018BE358
:100F900091E00E947B018093290190932A01D0E087
:100FA000C0E0D12CF12CE12CFE2CED2CDC2CCC243F
:100FB000E728C82AB701A601CE010E948D000E9431
:100FC00030032196C634D105A9F78BE391E00E9446
:100FD0009D01181619060CF0ABCF0E9472048BE32A
:100FE00091E00E947B018F3F910579F76AE070E004
:100FF00080E090E00E9403048BE391E00E947B017B
:1010000090932E0180932D018230910509F0A9CF94
:101010008BE391E00E947B0190933A018093390128
:101020008BE391E00E947B0190933801809337011C
:10103000CCCF049751F625E2E22E21E0F22ED0E04B
:10104000C0E080912D0190912E01C817D90714F5A9
:101050008BE391E00E947B01F701819391937F01E3
:101060002C01990F660877084AE0C301B20177FEA8
:101070000DC06DE28BE391E00E94DF0166277727C8
:10108000CB0164197509860997094AE00E94600539
:101090002196D7CFD0E0C0E080912B0190912C0118
:1010A000C817D9070CF091CF8091250140912701F5
:1010B00050E070E060E0762F652F542F4427682BB6
:1010C00080912901482BCE010E948D000E9430039F
:1010D0002196E2CF209135013091360140913301C4
:1010E00050913401609131017091320180912F0152
:1010F000909130010E94E9041BCF2FEF30E050E0C7
:1011000040E070E060E08EE190E0F4CF2FEF30E05F
:1011100050E040E06EE170E090E080E0EBCF0E94B4
:10112000720480913701909138018230910509F461
:10113000ACC0E4F5009709F4A3C0D0E0C0E001978B
:1011400009F0F6CE8091DA019091DB01C817D9073A
:1011500008F0EECE8091390190913A01049709F0A0
:10116000E7CE8091370190913801019709F0E0CEE8
:101170000E947204F09035018091DA019091DB01B8
:10118000C817D90748F4209133014091310160918B
:101190002F01CE010E94FE000E9430036F2D70E0EF
:1011A00090E080E00E9403042196CCCF843091052A
:1011B00009F4F4C00CF4A1C0D12CC12C059709F09E
:1011C000B7CE8091390190913A01049709F0B0CEE1
:1011D0008091370190913801059709F0A9CED0E0B0
:1011E000C0E00E94720470903501809139019091A5
:1011F0003A010497E1F58091370190913801059704
:10120000B1F5F12CE12CC6018E0D9F1DB8010E9495
:10121000680A0E943604AB01BC01CE018E0D9F1DF1
:101220000E948D00E3E0EE0EF11CF8E4EF16F104ED
:1012300051F70E943003672D70E090E080E00E943B
:101240000304F12CE12C40E050E0BA01CE018E0DF8
:101250009F1D0E948D0083E0E80EF11CE8E4EE166D
:10126000F10489F72196C330D10509F0BACFFFEF19
:10127000CF1ADF0AC11481E0D80609F0A2CF58CEF8
:101280002FEF30E044E150E069CEF12CE12C809169
:10129000390190913A01049709F04ACE80913701C3
:1012A00090913801029709F043CE0E947204D090C9
:1012B0003501D0E0C0E08091DA019091DB01C817E0
:1012C000D90758F48C2F8E0D0E943604AB01BC0157
:1012D000CE010E948D002196EECF0E9430036D2D2D
:1012E00070E090E080E00E940304FFEFEF1AFF0A35
:1012F000E11481E0F80659F61BCE70903501D0E07C
:10130000C0E08091390190913A01049709F010CE24
:101310008091370190913801039709F009CED12CC3
:10132000C12CF12CE12C8091DA019091DB01E816BF
:10133000F90628F58091390190913A010497F9F462
:1013400080913701909138010397C9F40E9472048B
:10135000709035016091DA017091DB01C6010E9445
:10136000680A8C2F860F0E943604AB01BC01C701AE
:101370000E948D00EFEFEE1AFE0AD394D4CF0E94A4
:101380003003672D70E090E080E00E940304219616
:10139000C11585E0D80709F0B4CFCACD70903501EA
:1013A0008AE0C82ED12C8091390190913A0104979E
:1013B00009F0BECD8091370190913801049709F072
:1013C000B7CDD0E0C0E08091390190913A01049707
:1013D00009F068C08091370190913801049709F0B5
:1013E00061C0F12CE12C8091DA019091DB01E816CB
:1013F000F90630F58091390190913A01049701F591
:1014000080913701909138010497D1F40E947204C1
:1014100070903501CE018E0D9F1D2091DA01309123
:10142000DB018217930740F4209133014091310191
:1014300060912F010E94FE00E3E0EE0EF11CD3CF7D
:101440000E943003672D70E090E080E00E9403046A
:10145000F12CE12C8091DA019091DB01E816F9067C
:10146000E0F48091390190913A010497B1F48091B0
:10147000370190913801049781F40E9472047090B2
:10148000350140E050E0BA01CE018E0D9F1D0E9453
:101490008D00F3E0EF0EF11CDDCF2196C330D105B6
:1014A00009F091CF81E0C81AD10809F07CCF40CD76
:1014B0008091E1019091E2010E945F0B8091DE0139
:1014C0009091DF0197FD03C060E00C94C502089580
:1014D000AA1BBB1B51E107C0AA1FBB1FA617B7075A
:1014E00010F0A61BB70B881F991F5A95A9F7809576
:1014F0009095BC01CD010895A1E21A2EAA1BBB1B39
:10150000FD010DC0AA1FBB1FEE1FFF1FA217B307CF
:10151000E407F50720F0A21BB30BE40BF50B661FE5
:10152000771F881F991F1A9469F7609570958095A9
:1015300090959B01AC01BD01CF010895052E97FB4D
:101540001EF400940E94B50A57FD07D00E947C0A41
:1015500007FC03D04EF40C94B50A50954095309595
:1015600021953F4F4F4F5F4F08959095809570950F
:1015700061957F4F8F4F9F4F0895EE0FFF1F05908E
:10158000F491E02D09940F931F93CF93DF93823052
:10159000910510F482E090E0E091F001F091F1010A
:1015A00030E020E0B0E0A0E0309799F4211531055B
:1015B00009F44AC0281B390B24303105D8F58A813B
:1015C0009B816115710589F1FB0193838283FE0183
:1015D00011C0408151810281138148175907E0F001
:1015E0004817590799F4109761F012960C931297C7
:1015F00013961C933296CF01DF91CF911F910F91DB
:1016000008950093F0011093F101F4CF21153105F5
:1016100051F04217530738F0A901DB019A01BD01CF
:10162000DF01F801C1CFEF01F9CF9093F101809371
:10163000F001CDCFFE01E20FF31F81939193225071
:10164000310939832883D7CF2091EE013091EF0102
:10165000232B41F420910201309103013093EF01DB
:101660002093EE01209100013091010121153105F7
:1016700041F42DB73EB74091040150910501241B60
:10168000350BE091EE01F091EF01E217F307A0F4C2
:101690002E1B3F0B2817390778F0AC014E5F5F4FC8
:1016A0002417350748F04E0F5F1F5093EF0140930A
:1016B000EE01819391939FCFF0E0E0E09CCFCF9338
:1016C000DF930097E9F0FC01329713821282A09118
:1016D000F001B091F101ED0130E020E01097A1F4AC
:1016E00020813181820F931F2091EE013091EF0113
:1016F0002817390709F061C0F093EF01E093EE017C
:10170000DF91CF910895EA01CE17DF07E8F54A810E
:101710005B819E0141155105B1F7E901FB83EA8325
:1017200049915991C40FD51FEC17FD0761F48081D1
:1017300091810296840F951FE901998388838281A4
:1017400093819B838A83F0E0E0E012968D919C91D7
:1017500013970097B9F52D913C911197CD01029601
:10176000820F931F2091EE013091EF012817390766
:1017700039F6309751F51092F1011092F001B093C3
:10178000EF01A093EE01BCCFD383C283408151818E
:10179000840F951FC817D90761F44E5F5F4F88818A
:1017A0009981480F591F518340838A819B8193837C
:1017B00082832115310509F0B0CFF093F101E09358
:1017C000F0019ECFFD01DC01C0CF13821282D7CF82
:1017D00010E0C2E6D0E004C0FE010E94BD0A2196DE
:0A17E000C336D107C9F7F894FFCF14
:1017EA000000F201800000000000DF013F016C01EF
:0817FA002C029D017B018F010F
:00000001FF
